{
  "contractName": "RatingSystem",
  "abi": [
    {
      "inputs": [
        {
          "internalType": "uint256",
          "name": "",
          "type": "uint256"
        }
      ],
      "name": "reviewers",
      "outputs": [
        {
          "internalType": "address",
          "name": "",
          "type": "address"
        }
      ],
      "stateMutability": "view",
      "type": "function",
      "constant": true
    },
    {
      "inputs": [
        {
          "internalType": "address",
          "name": "",
          "type": "address"
        }
      ],
      "name": "reviews",
      "outputs": [
        {
          "internalType": "uint256",
          "name": "question1",
          "type": "uint256"
        },
        {
          "internalType": "uint256",
          "name": "question2",
          "type": "uint256"
        },
        {
          "internalType": "uint256",
          "name": "question3",
          "type": "uint256"
        }
      ],
      "stateMutability": "view",
      "type": "function",
      "constant": true
    },
    {
      "inputs": [
        {
          "internalType": "uint256",
          "name": "_question1",
          "type": "uint256"
        },
        {
          "internalType": "uint256",
          "name": "_question2",
          "type": "uint256"
        },
        {
          "internalType": "uint256",
          "name": "_question3",
          "type": "uint256"
        }
      ],
      "name": "submitReview",
      "outputs": [],
      "stateMutability": "nonpayable",
      "type": "function"
    },
    {
      "inputs": [],
      "name": "getReviewers",
      "outputs": [
        {
          "internalType": "address[]",
          "name": "",
          "type": "address[]"
        }
      ],
      "stateMutability": "view",
      "type": "function",
      "constant": true
    }
  ],
  "bytecode": "0x608060405234801561001057600080fd5b506105cf806100206000396000f3fe608060405234801561001057600080fd5b506004361061004c5760003560e01c80630755464f1461005157806329d5477c1461008357806375a876431461009f5780639cc616f6146100bd575b600080fd5b61006b6004803603810190610066919061033e565b6100ed565b60405161007a939291906104bf565b60405180910390f35b61009d60048036038101906100989190610390565b610117565b005b6100a7610247565b6040516100b4919061049d565b60405180910390f35b6100d760048036038101906100d29190610367565b6102d5565b6040516100e49190610482565b60405180910390f35b60006020528060005260406000206000915090508060000154908060010154908060020154905083565b600083118015610128575060058311155b61013157600080fd5b600082118015610142575060058211155b61014b57600080fd5b60008111801561015c575060058111155b61016557600080fd5b6040518060600160405280848152602001838152602001828152506000803373ffffffffffffffffffffffffffffffffffffffff1673ffffffffffffffffffffffffffffffffffffffff1681526020019081526020016000206000820151816000015560208201518160010155604082015181600201559050506001339080600181540180825580915050600190039060005260206000200160009091909190916101000a81548173ffffffffffffffffffffffffffffffffffffffff021916908373ffffffffffffffffffffffffffffffffffffffff160217905550505050565b606060018054806020026020016040519081016040528092919081815260200182805480156102cb57602002820191906000526020600020905b8160009054906101000a900473ffffffffffffffffffffffffffffffffffffffff1673ffffffffffffffffffffffffffffffffffffffff1681526020019060010190808311610281575b5050505050905090565b600181815481106102e557600080fd5b906000526020600020016000915054906101000a900473ffffffffffffffffffffffffffffffffffffffff1681565b6000813590506103238161056b565b92915050565b60008135905061033881610582565b92915050565b60006020828403121561035057600080fd5b600061035e84828501610314565b91505092915050565b60006020828403121561037957600080fd5b600061038784828501610329565b91505092915050565b6000806000606084860312156103a557600080fd5b60006103b386828701610329565b93505060206103c486828701610329565b92505060406103d586828701610329565b9150509250925092565b60006103eb83836103f7565b60208301905092915050565b6104008161052f565b82525050565b61040f8161052f565b82525050565b600061042082610506565b61042a818561051e565b9350610435836104f6565b8060005b8381101561046657815161044d88826103df565b975061045883610511565b925050600181019050610439565b5085935050505092915050565b61047c81610561565b82525050565b60006020820190506104976000830184610406565b92915050565b600060208201905081810360008301526104b78184610415565b905092915050565b60006060820190506104d46000830186610473565b6104e16020830185610473565b6104ee6040830184610473565b949350505050565b6000819050602082019050919050565b600081519050919050565b6000602082019050919050565b600082825260208201905092915050565b600061053a82610541565b9050919050565b600073ffffffffffffffffffffffffffffffffffffffff82169050919050565b6000819050919050565b6105748161052f565b811461057f57600080fd5b50565b61058b81610561565b811461059657600080fd5b5056fea2646970667358221220a712b9eb8fac3dd19f5f50a3db6cf3efe8b9966e4ad330288c114120c56c048964736f6c63430008000033",
  "immutableReferences": {},
  "source": "// contracts/RatingSystem.sol\r\npragma solidity ^0.8.0;\r\n\r\ncontract RatingSystem {\r\n    struct Review {\r\n        uint question1;\r\n        uint question2;\r\n        uint question3;\r\n    }\r\n\r\n    mapping(address => Review) public reviews;\r\n    address[] public reviewers;\r\n\r\n    function submitReview(uint _question1, uint _question2, uint _question3) public {\r\n        require(_question1 > 0 && _question1 <= 5);\r\n        require(_question2 > 0 && _question2 <= 5);\r\n        require(_question3 > 0 && _question3 <= 5);\r\n\r\n        reviews[msg.sender] = Review(_question1, _question2, _question3);\r\n        reviewers.push(msg.sender);\r\n    }\r\n\r\n    function getReviewers() public view returns (address[] memory) {\r\n        return reviewers;\r\n    }\r\n}\r\n",
  "sourcePath": "C:\\Users\\SUMIT PRABHAKAR\\Desktop\\professor-rating-system\\contracts\\RatingSystem.sol",
  "compiler": {
    "name": "solc",
    "version": "0.8.0+commit.c7dfd78e.Emscripten.clang"
  },
  "schemaVersion": "3.4.16",
  "updatedAt": "2024-10-02T10:31:20.495Z",
  "networkType": "ethereum",
  "devdoc": {
    "kind": "dev",
    "methods": {},
    "version": 1
  },
  "userdoc": {
    "kind": "user",
    "methods": {},
    "version": 1
  }
}